:020000040800F2
:10000000C0FB0120450B0008210900082309000856
:10001000270900082B0900082F090008000000002C
:10002000000000000000000000000000AD0100081A
:10003000330900080000000001020008A532000892
:100040005F0B00085F0B00085F0B00085F0B0008E8
:100050005F0B00085F0B00085F0B00085F0B0008D8
:100060005F0B00085F0B00085F0B0008E13D000814
:100070005F0B00085F0B00085F0B00085F0B0008B8
:100080005F0B00085F0B00085F0B00085F0B0008A8
:100090005F0B00085F0B00085F0B0008CF0E010824
:1000A0005F0B00085F0B00085F0B00085F0B000888
:1000B0005F0B0008DF6100085F0B00085F0B0008A2
:1000C0005F0B00085F0B00085F0B00085F0B000868
:1000D0005F0B0008AB3300085F0B00085F0B0008E4
:1000E0005F0B00085F0B00085F0B00085F0B000848
:1000F0005F0B00085F0B00085F0B0008C33D0008A2
:100100005F0B0008115B00085F0B00085F0B000825
:100110005F0B00085F0B00085F0B00085F0B000817
:100120005F0B00085F0B00085F0B00085F0B000807
:100130005F0B00085F0B00085F0B00085F0B0008F7
:100140005F0B00085F0B00085F0B00085F0B0008E7
:100150005F0B00085F0B00085F0B00085F0B0008D7
:100160005F0B00085F0B00085F0B00085F0B0008C7
:100170005F0B00085F0B00085F0B00085F0B0008B7
:100180005F0B00085F0B0008DFF80CD011F06EFD6C
:1001900000480047B5070008C0FB012030BF72B619
:1001A000704762B6704780F3088870472A4B196819
:1001B0000868B0E8F04F80F30988BFF36F8F4FF005
:1001C000000080F3118870470000000006480068B6
:1001D000006880F3088862B661B6BFF34F8FBFF343
:1001E0006F8F00DF00BF00BF08ED00E0DFF80C00FC
:1001F000016841F470010160704700BF88ED00E0C4
:10020000EFF30980BFF36F8F134B1A681EF0100FC6
:1002100008BF20ED108A20E9F04F106008B44FF0BD
:10022000500080F31188BFF34F8FBFF36F8F07F03B
:1002300092FF4FF0000080F3118808BC196808682D
:10024000B0E8F04F1EF0100F08BFB0EC108A80F33A
:100250000988BFF36F8F704764010020EFF30580BA
:100260007047000010B5FE4809F042FAFD4810F052
:10027000F9F9FD490860FD4A0C21FB48006810F0BF
:100280003BFAFB4A0421F848006810F035FAF94AB5
:100290001021F548006810F02FFAF74809F028FA05
:1002A000F04810F0E5F9F5490860F54A0021F348F7
:1002B000006810F02CFA10BD02460B46B2F900009F
:1002C00000EE900AF8EEE00A60EE800AFDEEE00A29
:1002D00010EE901AB1F5004F02DB47F6FF7103E014
:1002E00011F5004F00DAE74908B218800020704786
:1002F00010B51422E449E04809F038FAE348DE4931
:100300000268DE48006810F0EAF910BD10B514224A
:10031000DD49D94809F02AFADD48D7490268D748AB
:10032000006810F0DCF910BD2DE9F0412DED028BD5
:1003300006460C469FEDD70BD84880ED000B0025F4
:1003400017E036F91570002F01DB394600E07942DD
:10035000084611F081FB41EC180BD04890ED000BE2
:1003600053EC102B51EC180B11F060FACB4A03C27E
:100370006D1CB5EB940FE4D3A00811F07EFB41ECAB
:10038000180B53EC182BC54890ED000B51EC100BDB
:1003900011F0F3FAC14A03C2C148008811F06DFBA5
:1003A00041EC180BBD4890ED000B53EC102B51ECB9
:1003B000180B11F089FB03D3BA48006800281FDD31
:1003C000B7490988A1F1640011F046FB41EC180B14
:1003D000B24890ED000B53EC102B51EC180B11F0C0
:1003E00073FB03D21420AF49086004E0AD480068F5
:1003F000401EAC4908600120BDEC028BBDE8F081D5
:100400000020F9E710B5A021A7480068FFF78CFF8E
:10041000D0B1934809F064F9914AA3480168924821
:10042000006810F04FF91422A0498D4809F09FFA96
:100430009F4800789F490978884205D19E48006806
:10044000142102699948904710BD10B5A0219B481E
:100450000068FFF769FFD0B1814809F041F9804A8F
:10046000964801688048006810F02CF914228F49E2
:100470007B4809F07CFA8E4800788E4909788842DA
:1004800005D18D480068142102698848904710BD45
:100490001CB50024002502F013FF0090BDE00121EF
:1004A000684607F0D4FC86480078002845D1824988
:1004B00009684869804728B1022821D0B0F5007F3B
:1004C00039D133E07A4800787A490978884216DAD7
:1004D00077480078401C76490870084600787549CE
:1004E000097888420BD14FF4A0716848006811F078
:1004F00082F94FF4A0716648006811F07CF91BE0A6
:100500006D48006801A9C2685F4890479DF80400E3
:1005100014280AD10020664908701DB90125FFF78B
:10052000E7FE02E00025FFF7F1FE05E062490968F9
:100530008868804700E000BF61E0614800780128DA
:100540002DD160480078012829D15F48006800EB70
:1005500080005E4A126802EB80114FF4A0725C4882
:1005600005F03DFC00240FE0594810F8140001216B
:1005700001EB4401564A515C40EA012000B2434974
:10058000096821F81400641CA02CEDDBFF204D4904
:1005900008704D480068401C4B4908602FE04848EF
:1005A000007801282BD14748007840BB46480068B6
:1005B00000EB8000454A126802EB80114FF4A072F4
:1005C000434805F00CFC00240FE0414810F81400EB
:1005D000012101EB44013E4A515C40EA012000B296
:1005E0002B49096821F81400641CA02CEDDBFF20C6
:1005F0003449087034480068401C33490860324868
:100600000068B0F5A07F08D100202D4908702E4960
:1006100008604FF4FA5003F0D9FA40E708B502F049
:100620004FFE0090A4E00121684607F010FC002076
:1006300003F066FC0446012C7ED12648007800F0C9
:10064000010058B12348007800F0FE0021490870ED
:1006500000220121084603F021F865E03CE000009B
:10066000100C0020A84001081C0000202C000020D5
:100670002400002028000020340C0020200000204E
:10068000300000200080FFFF6C0C00200C000020D8
:1006900010000020000000000000000040000020CA
:1006A000500000204C00002004000020580C0020C6
:1006B0001600002017000020B401002008000020D0
:1006C00035000020340000203C00002038000020CD
:1006D000800C0020140000207748007800F0800093
:1006E000B8B17548007840F00100734908700022E5
:1006F0001146104602F0D2FF4FF4A0716F48006817
:1007000011F079F84FF4A0716D48006811F073F89A
:100710000AE06948007840F08000674908700022CC
:100720000121084602F0BAFF6348007800F001009A
:1007300028B10120634900E005E0086002E00020E4
:100740006049086000BF00BF5F48007810B1012811
:100750000CD105E0FF205C490870FFF753FE06E06E
:10076000FF2059490870FFF770FE00E000BF00BF8E
:1007700059E71CB5044606F000F9002004210346A1
:100780008A01CDE9001051A1AFF26F1007F03AF9DC
:10079000002004210346CA01CDE900104FA1AFF2A9
:1007A0000F3007F02FF95148006807F079F906F08B
:1007B00007F91CBD1CB500244FF4A06000F0D4F96B
:1007C000A82002F009FD4FF4E13002F098FD03F09B
:1007D00051FB02F02FFE0120454908604FF4FA70EA
:1007E00002F042FD532140F2E73005F0B3FC10F077
:1007F00004FA05F095FA05F071FA4EF61671884282
:1008000002D13CA011F070FA02F072FE28210846D5
:1008100002F0A8FF3F2002F0BCFF002005F095FD8C
:10082000022005F092FDFFF71DFD4FF4A07100209E
:1008300005F04DFE334908604FF4A071002005F02B
:1008400046FE314908604FF4A071002005F03FFEDC
:100850001A4908604FF4A071002005F038FE1849CD
:1008600008602848006840B12748006828B113484C
:10087000006810B10846006800B901243CB905F0D1
:100880000EFD012021490870002021490860174809
:10089000032100234FF48072CDE900101DA1AFF2B7
:1008A0002D1007F0AFF807F0D8FD00201CBD00BFE9
:1008B000FEE700BFFEE70000140000200C0000204F
:1008C00010000020A00241421500002053656E6414
:1008D000446174615F7461736B000000526563442E
:1008E0006174615F7461736B0000000000000020A0
:1008F000AC02404277656C636F6D20746F20757336
:1009000065210A00040000200800002035000020B6
:100910003800002073746172745F7461736B00003F
:10092000704700BFFEE700BFFEE700BFFEE700BF65
:10093000FEE770470CB500200190009076480068F3
:1009400040F480307449086000BF7348006800F4C8
:10095000003000900198401C0190009818B901984F
:10096000B0F5A04FF1D16C48006800F4003010B130
:100970000120009001E0002000900098012846D15D
:1009800065484030006840F080506349403108605D
:100990006248006840F44040604908605E480830A2
:1009A00000685D49083108600846006840F400406E
:1009B00008600846006840F4A05008605848091FC5
:1009C0000860081F006840F08070091F086000BFC1
:1009D0005148006800F000700028F9D040F205701E
:1009E000504908604C480830006820F003004A492C
:1009F000083108600846006840F00200086000BF47
:100A000045480830006800F00C000828F8D10CBDFB
:100A100010B54548006840F47000434908603E48FE
:100A2000006840F001003C49086000203A49083164
:100A30000860394800683D490840374908603C482B
:100A4000091D0860081F006820F48020091F086045
:100A5000002031490C310860FFF76CFF4FF0006057
:100A600031498039086010BD70B500200022022392
:100A700000240221284D08352D6805F00C0020B116
:100A8000042806D0082834D107E02A4D2A4E3560C4
:100A900033E02A4D284E35602FE01F4D2D1D2D6867
:100AA000C5F380541C4D2D1D2D6805F03F0154B138
:100AB000224DB5FBF1F5184E361D3668C6F3881683
:100AC00005FB06F209E01B4DB5FBF1F5124E361D94
:100AD0003668C6F3881605FB06F20F4D2D1D2D68EE
:100AE000C5F301456D1C6B00B2FBF3F5124E35608A
:100AF00003E0104D104E356000BF00BF064D0835B5
:100B00002D68C5F303150E4E705D0B4D2D68C54065
:100B1000094E356070BD0000003802400070004092
:100B200019544007003C024088ED00E0FFFFF6FE4C
:100B3000103000240024F4005400002040787D018F
:100B4000580000200648804706480047FEE7FEE7B9
:100B5000FEE7FEE7FEE7FEE7FEE7FEE7FEE7FEE76D
:100B6000110A00088901000832490143324A116024
:100B7000704770B5002100230F22C4781CB32E4C9F
:100B8000246804F4E064C4F5E064C4F30721C1F10F
:100B90000404E3B20A4144789C40E1B284781440F2
:100BA00021430C07210E254C05786155047804F08B
:100BB0001F050124AC4005786D11AD0005F1E0255D
:100BC000C5F8004109E0047804F01F050124AC4099
:100BD0001B4D0678761145F8264070BD194A0A402B
:100BE0000243154B1B1F1A60704739B1124A121D80
:100BF00012680243104B1B1D1A6006E00E4A121DBC
:100C0000126882430C4B1B1D1A607047042808D1E0
:100C10004FF0E021096941F004014FF0E022116139
:100C200007E04FF0E021096921F004014FF0E022D4
:100C3000116170470000FA050CED00E000E400E0EF
:100C400080E100E080FFFF1F016821F001010160E9
:100C50000021016041608160C16001612121416129
:100C6000DB49884204D13D21D94A103A91608CE099
:100C7000D7491831884205D14FF47461D44A103AEB
:100C8000916082E0D2493031884205D14FF474112D
:100C9000CF4A103A916078E0CD494831884205D179
:100CA0004FF07461CA4A103A91606EE0C8496031F1
:100CB000884204D1C749C64A103AD16065E0C449A8
:100CC0007831884204D1C449C14A103AD1605CE00D
:100CD000BF499031884204D1C049BD4A103AD16021
:100CE00053E0BB49A831884205D14FF03D51B84A85
:100CF000103AD16049E0BA49884204D13D21B84A4E
:100D0000083A116041E0B6491831884205D14FF4E4
:100D10007461B34A083A116037E0B1493031884212
:100D200005D14FF47411AE4A083A11602DE0AC4978
:100D30004831884205D14FF07461A94A083A1160E0
:100D400023E0A7496031884204D1A249A44A121F76
:100D500011601AE0A2497831884204D19E49A04A24
:100D6000121F116011E09E499031884204D19B49C5
:100D70009B4A121F116008E09949A831884204D1AA
:100D80004FF03D51964A121F1160704710B5002276
:100D90000268944B1A40CC680B6823434C69234388
:100DA0008C692343CC6923430C6A23434C6A234355
:100DB0008C6A23434C6B23438C6B23431A4302609E
:100DC000426922F00702D1E90B3423431A434261FE
:100DD0000B6943604B6883608B68C36010BD002162
:100DE000016041608160C160016141618161C161F7
:100DF000016241628162C162016341638163704744
:100E000021B1026842F00102026003E0026822F0B0
:100E100001020260704721B1026842F400420260A0
:100E200003E0026822F400420260704721B10268C8
:100E300042F02002026003E0026822F02002026019
:100E40007047416070470146486880B2704722B1E0
:100E5000036843F40023036003E0036823F40023E2
:100E600003600161704721B1026842F48022026090
:100E700003E0026822F48022026070470AB1016137
:100E800000E0C1607047014600200A6802F40022B9
:100E90000AB1012000E000207047014600200A68E6
:100EA00002F001020AB1012000E000207047014673
:100EB00000204A6902F03800704730B503460A4600
:100EC00000200024464DAB4202D24149103901E0D6
:100ED0004349103902F000550DB14C6800E00C6830
:100EE000414D2C4004EA02050DB1012000E0002034
:100EF00030BD02463A4B9A4202D23548103801E0E2
:100F00003748103801F000531BB1374B0B40C3601A
:100F100002E0354B0B408360704710B501F0800351
:100F20004BB122B1436943F08003436103E043695D
:100F300023F08003436180290BD02AB1036801F0BC
:100F40001E042343036004E0036801F01E04A3436E
:100F5000036010BD70B50246002000240025204E1D
:100F6000B24202D21A4B103B01E01D4B103B1F4E08
:100F70000E4036B11E2606EAD124166806EA04059C
:100F800002E0566906F0800501F000560EB15C687B
:100F900000E01C68144E344004EA010616B10DB19D
:100FA000012000E0002070BD02460D4B9A4202D2A3
:100FB0000748103801E00A48103801F000531BB10F
:100FC000094B0B40C36002E0074B0B408360704746
:100FD000106002403D000020400F002000003D2036
:100FE000106402403F801CF07D0F7D0F3C0F3C0FD2
:100FF000002041490860091D0860091D0860091D9D
:1010000008603E483C4914310860704700213A4965
:101010008279002A3AD00A46126803689A430B463E
:101020001A600A1D126803689A430B1D1A60027940
:1010300011440A6803681A430A602F4A083212688A
:1010400003689A432C4B08331A601A1D1268036810
:101050009A43294B0C331A604279102A0ED11A1F79
:10106000126803681A43244B08331A601A1D126869
:1010700003681A43204B0C331A600DE01E49427975
:1010800011440A6803681A430A6005E002791144B2
:101090000A6803689A430A60704700210160017181
:1010A0000C21417100218171704713491031096889
:1010B0000143114A103211607047014600200E4A68
:1010C000143212680A400AB1012000E00020704783
:1010D000094914310860704701460020064A14325D
:1010E00012680A400AB1012000E00020704702495E
:1010F0001431086070470000003C0140FFFF7F0092
:1011000010B504469848844208D10121084600F0F1
:1011100086FB0021012000F082FB76E093488442A8
:1011200008D10121022000F07AFB0021022000F00A
:1011300076FB6AE08E48844208D10121042000F049
:101140006EFB0021042000F06AFB5EE089488442C7
:1011500008D10121082000F062FB0021082000F0E6
:101160005EFB52E08448844208D10121102000F047
:1011700056FB0021102000F052FB46E07F488442DD
:1011800008D10121202000F04AFB0021202000F09E
:1011900046FB3AE07A48844208D10121402000F021
:1011A0003EFB0021402000F03AFB2EE075488442CF
:1011B00008D10121802000F032FB0021802000F0C6
:1011C0002EFB22E07048844208D10121801500F0F6
:1011D00026FB0021A01500F022FB16E06B4884429C
:1011E00008D10121401500F01AFB0021601500F024
:1011F00016FB0AE06648844207D10121001500F081
:101200000EFB0021201500F00AFB10BDF0B50A46C8
:1012100000210023002400BF3DE0012505FA01F371
:10122000156805EA03049C4234D105684F00032683
:10123000BE40B543056015794E00B540066835439C
:1012400005601579012D02D01579022D16D185681A
:101250004F000326BE40B543856055794E00B5402A
:10126000866835438560456801268E40B5434560F4
:10127000456896798E40B6B235434560C5684F00E3
:101280000326BE40B543C560D5794E00B540C6685B
:101290003543C560491C1029BFD3F0BD4FF6FF711F
:1012A00001600021017141718171C171704708B500
:1012B0004FF480320092009A0A430092009AC26171
:1012C000C161009AC261C2690092C269009208BD00
:1012D0000246002013690B400BB1012000E0002002
:1012E00070470146086980B2704702460020536982
:1012F0000B400BB1012000E0002070470146486917
:1013000080B2704701837047418370470AB10183FF
:1013100000E0418370474161704742694A40426141
:101320007047F0B5002300244D07ED0E02FA05F3D7
:10133000CE1000F1200555F826504E07F70E0F2667
:10134000BE40B543CF1000F1200646F82750CE101E
:1013500000F1200555F8265045EA0304CE1000F1AF
:10136000200545F82640F0BD000002400004024080
:1013700000080240000C024000100240001402402D
:1013800000180240001C02400020024000240240DD
:1013900000280240F948006840F00100F749086061
:1013A0000020F64908310860F4480068F449084014
:1013B000F2490860F348091D0860F348EF49843199
:1013C0000860F0481038091D0860EC48006820F4F7
:1013D0008020EA4908600020E8490C310860E749AC
:1013E0008C31086070470021E44A921C117011464C
:1013F0000870704710B501460022002300204A11F2
:10140000012A02D1DD4C236808E0022A03D1DB4C1B
:101410007034236802E0D94C7434236801F01F0251
:10142000012494401C400CB1012000E0002010BDBC
:1014300038B5002000900024002500BF3120FFF7C0
:10144000D9FF05460098401C00900098B0F5A04FC9
:1014500001D0002DF2D03120FFF7CCFF08B10124DC
:1014600000E00024204638BD01460020C34A106831
:1014700020F0F80040EAC10010607047C3490860DE
:1014800070470021BD4A703211701170012802D0DE
:1014900004280AD104E00121B84A7032117005E035
:1014A0000521B64A7032117000E000BF00BF7047DE
:1014B000B7490860704770B5049C41EA821501265F
:1014C000C6EB530645EA0645054345EA0465AB4EBF
:1014D000361D356070BDAD4908667047820142EA2D
:1014E0000172A64B84331A607047A849886670471A
:1014F00010B5830143EA016343EA02739F4C8834C9
:10150000236010BDA14908677047A049C8647047AF
:1015100002460020994B0833186820F0EC6042EA3C
:1015200001031843954B08331860704702460020AA
:10153000924B0833186820F0784042EA01031843C0
:101540008E4B083318607047014600208B4A0832E2
:10155000106820F003000843106070478748083087
:10156000006800F00C00704701460020834A0832F2
:10157000106820F0F000084310607047014600201A
:101580007E4A0832106820F4E0500843106070472B
:1015900001460020794A0832106820F4604040EA91
:1015A000C10010607047F0B5002100220024022520
:1015B00000260223714F08373F6807F00C0121B164
:1015C000042905D0082937D105E0724F076036E0BD
:1015D000714F076033E0694F3F1D3F68C7F3805686
:1015E000664F3F1D3F6807F03F036EB16A4FB7FB80
:1015F000F3F7DFF888C10CF1040CDCF800C0CCF381
:10160000881C07FB0CF40CE0624FB7FBF3F7DFF824
:101610006CC10CF1040CDCF800C0CCF3881C07FB97
:101620000CF4564F3F1D3F68C7F301477F1C7D00F8
:10163000B4FBF5F7076002E0564F076000BF00BF3C
:101640004E4F08373F6807F0F0010909534F7A5CA5
:101650000768D7404760494F08373F6807F4E051B3
:10166000890A4E4F7A5C4768D7408760434F0837F6
:101670003F6807F46041490B484F7A5C4768D740A0
:10168000C760F0BD002100F44072B2F5407F0AD17E
:101690003A4A0832116821F4F811414A02401143D4
:1016A000364A08321160354A70321268C0F30B03B3
:1016B0001A43324B70331A60704735494439086019
:1016C00070473349403908607047364908607047B1
:1016D00001460020294A8C32106820F01F004A1E63
:1016E0001043264A8C321060704701460020234A7E
:1016F0008C32106820F4F8504A1E40EA02201F4A3B
:101700008C3210607047014600201C4A8C321068F1
:1017100020F4401008431060704701460020174A2B
:101720008C32106820F44000084310607047014676
:101730000020124A8C32106820F4403008431060B8
:10174000704719490860704739B10C4A3032126845
:1017500002430A4B30331A6006E0084A30321268FE
:101760008243064B30331A607047F9B1034A343272
:1017700012680243014B34331A601CE00038024007
:10178000FFFFF6EA1030002400300020000047423E
:10179000800E47420024F40040787D01680000205C
:1017A000FFFCFF0F5C014742E01147428F4A12687D
:1017B00082438E4B1A60704739B18C4A121D1268F1
:1017C00002438A4B1B1D1A6006E0884A121D1268EC
:1017D0008243864B1B1D1A60704739B1834A0C3215
:1017E00012680243814B0C331A6006E07F4A0C32C8
:1017F000126882437D4B0C331A60704739B17B4AC3
:10180000103212680243794B10331A6006E0774AAF
:10181000103212688243754B10331A60704739B129
:10182000724A243A12680243704B243B1A6006E065
:101830006E4A243A126882436C4B243B1A6070470C
:1018400039B16A4A203A12680243684B203B1A6059
:1018500006E0664A203A12688243644B203B1A60D5
:10186000704739B1614A1C3A126802435F4B1C3B16
:101870001A6006E05D4A1C3A126882435B4B1C3BCF
:101880001A60704739B1594A143A12680243574BEB
:10189000143B1A6006E0554A143A12688243534BCF
:1018A000143B1A60704739B1504A103A126802432B
:1018B0004E4B103B1A6006E04C4A103A12688243C5
:1018C0004A4B103B1A60704739B1484A1C321268C3
:1018D0000243464B1C331A6006E0444A1C3212682D
:1018E0008243424B1C331A60704739B13F4A203261
:1018F000126802433D4B20331A6006E03B4A203217
:1019000012688243394B20331A60704739B1374A25
:10191000243212680243354B24331A6006E0334AFE
:10192000243212688243314B24331A60704739B134
:101930002E4A2C32126802432C4B2C331A6006E0DC
:101940002A4A2C3212688243284B2C331A60704783
:1019500039B1264A303212680243244B30331A60C0
:1019600006E0224A303212688243204B30331A603C
:101970007047012808D11D493C31096841F0080130
:101980001A4A3C32116007E018493C31096821F0DD
:101990000801164A3C321160704739B1134A273AA0
:1019A00012780243114B273B1A7006E00F4A273A80
:1019B000127882430D4B273B1A7070470B4840301A
:1019C000006840F080700949403108607047014666
:1019D0000020064A283A12680A400AB1012000E0B5
:1019E000002070470149263908707047343802409A
:1019F00010B50121C802FFF756FF00214FF4006027
:101A0000FFF751FF10BD00216C4A116847F6FF62D5
:101A10009143027D83681A4343681A43C3681A439B
:101A200003681A4303691A431143644A11607047FB
:101A300000210175016041608160C16001617047F2
:101A40005F49086070475D49091F086070475B483F
:101A5000001F006800F0030070470021574B1B1D5A
:101A600002681A601A1D11686FF30A01D0E9012398
:101A70001A43C3681A4303691A4311434F4A083291
:101A8000116070470021016041608160C1600161A7
:101A900070474A480C300068C0B2704708B501462C
:101AA00000200090454810300844009000980068DD
:101AB00008BD0021414B203302681A601B1D42689B
:101AC0001A601A1D116821F0F701D0E902231A43A8
:101AD00003691A4343691A431143384A2832116093
:101AE00070474FF0FF310160002141608160C160AB
:101AF00001614161704731482C30006870472F48C0
:101B00007C30006870472D497C31086070472B4855
:101B10004430006870472B49086070472949091D07
:101B200008607047274908310860704725490C3123
:101B3000086070472449086070472349091D086000
:101B4000704701218143204A0832116070471E49C5
:101B50000C31086070471B4914390860704739B16F
:101B6000164A383212680243144B38331A6006E0C2
:101B7000124A383212688243104B38331A60704769
:101B8000014600200D4A303212680A400AB1012095
:101B900000E0002070470949343108607047014671
:101BA0000020064A303212680A400AB1012000E0E3
:101BB000002070470149343108607047042C01400F
:101BC000A0802542A0852542AC81254210B504465F
:101BD000FB48844208D101218014FFF764FE0021F4
:101BE000A014FFF760FE3CE0F648844208D10121D2
:101BF0000014FFF747FE00212014FFF743FE30E0FA
:101C0000F148844208D10121C013FFF73BFE0021B7
:101C1000E013FFF737FE24E0EC48844208D10121AD
:101C20004014FFF740FE00216014FFF73CFE18E06F
:101C3000E748844209D101210805FFF734FE00215D
:101C40004FF48010FFF72FFE0BE0E248844208D1EA
:101C500001214805FFF727FE00214FF40010FFF790
:101C600022FE10BD10B50022028802F441520B88FA
:101C70004C8823438C882343CC8823430C892343FB
:101C80004C8923438C892343CC8923431A43028004
:101C9000838B4FF2FF74234083830B8A038210BD32
:101CA0002DE9F04F0025022300244FF00109002206
:101CB0000026002794469046B0F81CA04FF2400B37
:101CC0000AEA0B0AA0F81CA04FF0020AA0F820A014
:101CD000858BD1F808A0BAF1020F01D100BF82E0D4
:101CE000B1F804A0BAF1000F02D14FF0010901E0F0
:101CF0004FF00209DFF8E0A2DAF800A00AF4000AC7
:101D0000BAF1000F09D0DFF8D0A2DAF800A02AF467
:101D1000000ADFF8C4B2CBF800A0DFF8BCA20AF1D9
:101D20007C0ADAF800A0CAF3881CDFF8ACA20AF13A
:101D30007C0ADAF800A0CAF30278DFF89CA2AAF1C4
:101D4000040ADAF800A00AF03F07DFF88CA2AAF133
:101D5000040ADAF800A00AF4800ABAF5800F08D164
:101D6000DFF878A2BAFBF7FA0AFB0CFABAFBF8F62E
:101D700007E0DFF86CA2BAFBF7FA0AFB0CFABAFB31
:101D8000F8F6B1F806A0BAF5007F0ED14FEA162A90
:101D90000AEB8A0A4FEA4A0AD1F808B0BAFBFBFA02
:101DA0000AF1050A1FFA8AF20FE04FEA491AB6FB58
:101DB000FAFA0AEB8A0A4FEA4A0AD1F808B0BAFBE3
:101DC000FBFA0AF1050A1FFA8AF24FF00A0AB2FB7F
:101DD000FAF202F00104A2EB040ACAF34F034FF631
:101DE000FF7A0AEA0424022B01DBFF2B01DD022328
:101DF0000024B1F806A04AEA040A4AEA030AA0F855
:101E000020A0B1F804A0B1F80CB04AEA0B0AB1F86E
:101E100002B04AEA0B0AB1F800B04AEA0B0A4AF4E7
:101E2000006A4AEA05058583BDE8F08F002101803C
:101E300041808180C180018141818181C1810721EF
:101E4000018270470021018041808180C180022190
:101E5000816000218181704721B1028842F04002F7
:101E6000028004E002884FF6BF731A400280704778
:101E700021B1828B42F48062828304E0828B4FF630
:101E8000FF331A408283704702884FF2FF731A4073
:101E9000028002880A4302807047B1F5804F04D166
:101EA000028842F48042028004E002884BF6FF730D
:101EB0001A40028070474FF6FF62914204D00288B8
:101EC00042F48072028004E002884FF6FF631A40F9
:101ED0000280704721B1828842F00402828004E0CF
:101EE00082884FF6FB731A408280704721B1828846
:101EF00042F01002828004E082884FF6EF731A40AD
:101F00008280704730B500220023848B4FF2400559
:101F10002C40848302240484828B0C88B4F5007FD7
:101F200001D00C8814B94FF4807308E00C88B4F524
:101F3000407F03D00C88B4F5807F00D100238C88CB
:101F40008D892C434D882C431C4344F40064224368
:101F5000828330BD0146888970478181704721B1F5
:101F6000028842F40052028004E002884DF6FF73BA
:101F70001A4002807047018841F480510180704707
:101F800002460020012901D0108B00E0908A7047A2
:101F90000146088A70471AB183880B43838002E0A8
:101FA00083888B438380704730B5002400230C1155
:101FB0000125A540ABB2AAB185881D43858014E0F8
:101FC0000030014000380040003C00400034014037
:101FD00000500140005401400838024040787D0123
:101FE0000024F40085889D43858030BD0246002092
:101FF00013890B400BB1012000E000207047CA4359
:1020000002817047F0B5024600200024002300251D
:1020100001F00F070126BE40B4B20B1101269E400D
:10202000B3B2968806EA03051689264016B10DB1AB
:10203000012000E00020F0BD10B5002201F00F04E7
:102040000123A3409AB2D343038110BD10B50121EF
:102050008803FFF728FC00214FF48040FFF723FCA2
:1020600010BD1C49086070471B490862704730B5B5
:1020700000228B071C0F0F2303FA04F2154B0833C1
:102080008C1053F824309343124C08348D1044F8CC
:10209000253023468C1053F824308C07240F00FA87
:1020A00004F423430B4C08348D1044F8253030BD24
:1020B0000949DC3108607047084908607047002012
:1020C00004492031096801F4807109B1012000E060
:1020D00000207047003801400000274200042742DA
:1020E00010B50446FE48844208D101210846FFF796
:1020F000DAFB00210120FFF7D6FB9DE0B4F1804F11
:1021000008D101210846FFF7BDFB00210120FFF7A0
:10211000B9FB91E0F348844208D101210220FFF786
:10212000B1FB00210220FFF7ADFB85E0EE488442C1
:1021300008D101210420FFF7A5FB00210420FFF7AF
:10214000A1FB79E0E948844208D101210820FFF78A
:1021500099FB00210820FFF795FB6DE0E4488442DD
:1021600008D101211020FFF78DFB00211020FFF77F
:1021700089FB61E0DF48844208D101212020FFF77C
:1021800081FB00212020FFF77DFB55E0DA488442E7
:1021900008D101210220FFF786FB00210220FFF772
:1021A00082FB49E0D548844209D101210804FFF7A8
:1021B0007AFB00214FF48030FFF775FB3CE0D048FC
:1021C000844209D101214804FFF76DFB00214FF43F
:1021D0000030FFF768FB2FE0CA48844209D1012193
:1021E0008804FFF760FB00214FF48020FFF75BFBC2
:1021F00022E0C548844208D101214020FFF742FB7C
:1022000000214020FFF73EFB16E0C048844208D181
:1022100001218020FFF736FB00218020FFF732FBF1
:102220000AE0BB48844207D101218015FFF72AFB51
:102230000021A015FFF726FB10BD00220288A84B45
:1022400098420ED0AC4B98420BD0B0F1804F08D0E2
:10225000A44B984205D0A44B984202D0A34B98427D
:1022600004D14FF68F731A404B881A43A04B984203
:1022700007D0A04B984204D04FF6FF431A400B8979
:102280001A4302804B68C3620B880385944B9842C3
:1022900002D0994B984201D18B7A03860123838225
:1022A00070474FF0FF314160002101800181418082
:1022B000817270470185828270470A460021018839
:1022C0004FF68F7319401143018070474162704788
:1022D000C16270470146486A70470146088D7047E1
:1022E00021B1028842F00202028004E002884FF627
:1022F000FD731A400280704721B1028842F0040247
:10230000028004E002884FF6FB731A400280704797
:1023100021B1028842F08002028004E002884FF678
:102320007F731A400280704702884FF6F7731A4095
:10233000028002880A430280704702884FF6FF43FA
:102340001A40028002880A430280704721B1028845
:1023500042F00102028004E002884FF6FE731A4048
:102360000280704770B5002400220023058C4FF6D0
:10237000FE7635400584028C8388048B4FF68F757A
:102380002C40B51E2C400D882C43751E2A408D898B
:102390002A434D882A43524DA84202D0564DA842A6
:1023A00013D14FF6F7752A40CD892A434FF6FB75B6
:1023B0002A408D882A434FF6FF652B404FF6FF5584
:1023C0002B400D8A2B434D8A2B43838004838D68D9
:1023D0004563028470BD70B5002400220023058C83
:1023E0004FF6EF7635400584028C8388048B48F6DF
:1023F000FF752C404FF6FF452C400D884FF6FF76B9
:1024000006EA05252C434FF6DF752A408D8906EA3A
:1024100005152A434D8806EA05152A43304DA84282
:1024200002D0354DA8421DD14FF67F752A40CD8987
:102430004FF6FF7606EA05152A434FF6BF752A4088
:102440008D8806EA05152A434FF6FF352B404FF2DB
:10245000FF752B400D8A06EA85052B434D8A06EA57
:1024600085052B43838004838D688563028470BD5A
:1024700070B5002400220023058C4FF6FF6635401E
:102480000584028C8388848B4FF68F752C404FF621
:10249000FC752C400D882C434FF6FF552A408D8942
:1024A0004FF6FF7606EA05252A434D8806EA0525FC
:1024B0002A430B4DA84202D00F4DA84238D14FF20B
:1024C000FF752A40CD894FF6FF7606EA05252A4397
:1024D0004FF6FF352A408D8806EA05252A4319E084
:1024E000000001400004004000080040000C0040D3
:1024F0000010004000140040000401400040014072
:10250000004401400048014000180040001C004009
:10251000002000404EF6FF752B404DF6FF752B4016
:102520000D8A06EA05152B434D8A06EA05152B434D
:10253000838084838D68C563028470BD70B500227A
:1025400000230024058C4EF6FF7635400584038C6D
:102550008488828B48F6FF752A404FF6FF452A4053
:102560000D884FF6FF7606EA05252A434DF6FF75DE
:102570002B408D8906EA05352B434D8806EA053543
:102580002B43FE4DA84202D0FD4DA84208D14BF688
:10259000FF752C400D8A4FF6FF7606EA85152C4311
:1025A000848082838D680564038470BD002101806E
:1025B0004180818081608181C18101824182704737
:1025C00070B50346002000241846183001258D40C0
:1025D000ACB21D8CA5431D8409B108290AD100EBBA
:1025E000610005684FF68F76354005600568154334
:1025F00005600FE00D1FC5F34E052844056848F639
:10260000FF763540056005684FF6FF7606EA02263C
:102610003543056070BD4163704781637047C16396
:102620007047016470470A460021018B4FF68F7393
:1026300019401143018370470A460021018B48F677
:10264000FF7319404FF6FF7303EA02231943018316
:1026500070470A460021818B4FF68F731940114352
:10266000818370470A460021818B48F6FF73194029
:102670004FF6FF7303EA02231943818370470A462A
:102680000021018B4FF6F773194011430183704706
:102690000A460021018B4FF2FF7319404FF6FF737A
:1026A00003EA02231943018370470A460021818B04
:1026B0004FF6F77319401143818370470A46002192
:1026C000818B4FF2FF7319404FF6FF7303EA022329
:1026D0001943818370470A460021018B4FF6FB7333
:1026E00019401143018370470A460021018B4FF6C0
:1026F000FF3319404FF6FF7303EA022319430183A6
:1027000070470A460021818B4FF6FB731940114335
:10271000818370470A460021818B4FF6FF331940B1
:102720004FF6FF7303EA02231943818370470A4679
:102730000021018B4FF67F731940114301837047CD
:102740000A460021018BC1F30E014FF6FF7303EA25
:1027500002231943018370470A460021818B4FF6FB
:102760007F7319401143818370470A460021818B92
:10277000C1F30E014FF6FF7303EA0223194381836D
:1027800070470A460021018C4FF6FD731940114332
:10279000018470470A460021018C4FF6F7731940F7
:1027A0001143018470470A460021018C4FF6DF7304
:1027B00019404FF6FF7303EA02131943018470476F
:1027C0000A460021018C4FF67F7319404FF6FF73C4
:1027D00003EA02131943018470470A460021018C61
:1027E0004FF6FF5319404FF6FF7303EA02231943D4
:1027F000018470470A460021018C4FF2FF73194093
:102800004FF6FF7303EA02231943018470470A4617
:102810000021018C4DF6FF7319404FF6FF7303EA58
:10282000023319430184704730B5002301248C40E2
:10283000A3B2048C9C430484048C02FA01F5ADB26B
:102840002C43048430BD30B5002304248C40A3B253
:10285000048C9C430484048C02FA01F5ADB22C4331
:10286000048430BD828B4FF2FF331A408283828B07
:102870004FF6FF7303EA01231A4382837047F0B5D2
:102880000C461546002100220026078C4EF6FF7CE0
:1028900007EA0C070784818B028C4FF6FF7707EA63
:1028A000043640F6FF4739404FF6FF7707EA052721
:1028B00039434FF6FF7707EA0337394345F6FF7789
:1028C0003A4046F480573A4381830284F0BD828BBC
:1028D0004FF6F3731A408283828B0A4382837047D8
:1028E000F0B50C461546002100220026078C4FF655
:1028F000FF6C07EA0C070784818B028C4FF6FF7789
:1029000007EA04264FF60C7739404FF6FF7707EABF
:1029100003172F4339434FF2FF573A4046F480776D
:102920003A4381830284F0BD028B4FF2FF331A4099
:102930000283028B4FF6FF7303EA01231A430283DB
:102940007047F0B50C461546002100220026078C82
:102950004FF6EF7C07EA0C070784018B028C4FF6D9
:10296000FF7707EA041640F6FF4739404FF6FF7736
:1029700007EA033739434FF6FF7703E000000140D1
:102980000004014007EA052739434FF65F773A40D4
:1029900046F010073A4301830284F0BD028B4FF6E4
:1029A000F3731A400283028B0A4302837047F0B527
:1029B0000C46154600210022068C4FF6FE773E405D
:1029C0000684018B028C4FF60C7631407E1C06EAA1
:1029D00003162E4331434FF6F576324044F001069C
:1029E000324301830284F0BD70B505460C46208851
:1029F00050B92389A28861882846FFF7D8FFE1886B
:102A00002846FFF7CBFF25E0208804280AD1238938
:102A1000A28861882846FFF794FFE1882846FFF7DF
:102A200083FF17E0208808280AD12389A2886188BB
:102A30002846FFF755FFE1882846FFF748FF09E0E1
:102A40002389A28861882846FFF719FFE188284674
:102A5000FFF708FF70BD00210180418001218180C6
:102A60000021C180018170472DE9F04105460C46E7
:102A700000260127608808B9022600E00026A08809
:102A8000012801D1022700E001272088A0B923896D
:102A9000A28861882846FFF78AFFE1882846FFF769
:102AA0007DFF23893A4631462846FFF74AFFE188F1
:102AB0002846FFF739FF13E02389A288618828465A
:102AC000FFF73FFFE1882846FFF72EFF23893A46AC
:102AD00031462846FFF76BFFE1882846FFF75EFF87
:102AE000BDE8F0810146486B70470146886B70472E
:102AF0000146C86B70470146086C70470A884B88CE
:102B00001A438B881A43CB881A430B891A434B8983
:102B10001A438B891A43A0F8442070470021018092
:102B200041808180C180018141818181704731B1C3
:102B3000B0F8442042F40042A0F8442005E0B0F888
:102B40004420C2F30E02A0F84420704721B18288CD
:102B500042F00402828004E082884FF6FB731A4040
:102B60008280704721B1828842F00102828004E0B5
:102B700082884FF6FE731A40828070471AB18389AB
:102B80000B43838102E083898B4383817047818279
:102B9000704702460020138A0B400BB1012000E071
:102BA00000207047CA430282704730B502460020B9
:102BB00000230024158A05EA0103958905EA01042A
:102BC00013B10CB1012000E0002030BDCA430282E5
:102BD000704741EA0203A0F8483070471AB1838970
:102BE0000B43838102E083898B438381704721B14A
:102BF000828842F00802828004E082884FF6F773F0
:102C00001A408280704701894FF6F87211400181A5
:102C100070470A46002101894FF68F73194011430E
:102C20000181704730B504460D4629462046FFF71E
:102C3000F0FF208940F00700208130BD2DE9F041F0
:102C400004460D4616461F46602D06D13B4601221E
:102C500031462046FFF775FE05E03B46012231462E
:102C60002046FFF7A4FE29462046FFF7D2FF208921
:102C700040F007002081BDE8F08130B50C4600210E
:102C80000189C9B24FF6FF7505EA032515432543AF
:102C90002943018130BD2DE9F04105460E46174616
:102CA0009846002443463A4631462846FFF7E5FF5A
:102CB0002C894FF6F870044044F007044FF68F70EB
:102CC000044044F070042C81BDE8F081F0B5044666
:102CD0000D4616461F463B46324629462046FFF71C
:102CE000CCFF208940F480402081F0BD82884FF6DF
:102CF0008F731A40828082880A43828070470289DB
:102D00004FF6F8731A40028102890A430281704724
:102D100002894FF67F731A40028102890A430281B9
:102D20007047F0B50C4615461E46002100220023D0
:102D30000189028B038C4FF6F877394021434FF617
:102D4000FC473A4040F201173A434FF6DD773B40EB
:102D50004FF6FF7707EA06172F433B4301810283B3
:102D60000384F0BD21B1828842F08002828004E0B9
:102D700082884FF67F731A4082807047A0F8501007
:102D80007047000010B50446FA48844208D101217A
:102D90001020FEF788FD00211020FEF784FD57E08B
:102DA000F548844209D101214804FEF76BFD00215A
:102DB0004FF40030FEF766FD4AE0F048844209D146
:102DC00001218804FEF75EFD00214FF48020FEF70C
:102DD00059FD3DE0EA48844209D10121C804FEF7CB
:102DE00051FD00214FF40020FEF74CFD30E0E54896
:102DF000844209D101210805FEF744FD00214FF46A
:102E00008010FEF73FFD23E0DF48844208D1012116
:102E10002020FEF748FD00212020FEF744FD17E0AA
:102E2000DA48844209D101218807FEF72BFD0021F1
:102E30004FF08040FEF726FD0AE0D548844207D1D6
:102E400001214005FEF71EFD00216005FEF71AFD79
:102E500010BD2DE9FF4705460E460024A14600BFE0
:102E6000A046B08900B100BF2C8A24F44054F088F9
:102E700004432C82AC8941F20C608443B0883189D0
:102E80000843718908430443AC81AC8A24F440743C
:102E9000B0890443AC826846FEF785FBB54885429D
:102EA00002D0B948854202D1DDF80C9001E0DDF88E
:102EB0000890A88900F4004040B109EBC90000EB7C
:102EC000091031684900B0FBF1F707E009EBC900D0
:102ED00000EB091031688900B0FBF1F76420B7FB03
:102EE000F0F004012009642101FB1078A88900F4A6
:102EF000004040B1322000EBC800B0FBF1F000F020
:102F00000700044308E0322000EB08106421B0FB06
:102F1000F1F000F00F0004432C81BDE8FF874FF46F
:102F20001651016000218180C18001810C21418105
:102F300000218181704710B502460020108A20F4DC
:102F400070600B884C8823438C882343CC882343B0
:102F50001843108210BD0021018041808180C18012
:102F6000704721B1828942F40052828104E0828953
:102F70004DF6FF731A4082817047028B02F47F4244
:102F80000283028B0A430283704721B1828942F493
:102F90000042828103E08289C2F30E02828170477F
:102FA00021B1828A42F40062828204E0828A4FF276
:102FB000FF731A4082827047C1F308028280704713
:102FC00001468888C0F308007047028A4FF6F07304
:102FD0001A400282028A0A430282704721B1828922
:102FE00042F00202828104E082894FF6FD731A40AA
:102FF0008281704782894FF2FF731A4082818289F1
:103000000A4382817047028A4FF6DF731A400282B8
:10301000028A0A430282704721B1028A42F4804246
:10302000028204E0028A4BF6FF731A400282704764
:10303000818941F001018181704721B1828A42F08A
:103040000802828204E0828A4FF6F7731A40828275
:103050007047028BD2B20283028B42EA01220283C2
:10306000704721B1828A42F02002828204E0828A83
:103070004FF6DF731A408282704721B1828A42F094
:103080001002828204E0828A4FF6EF731A40828235
:103090007047828A4FF6FB731A408282828A0A4303
:1030A0008282704721B1828A42F00202828204E069
:1030B000828A4FF6FD731A40828270471AB1838A62
:1030C0000B43838202E0838A8B4383827047F0B58F
:1030D0000346002400260025002040F66A17B94266
:1030E00000D100BF1846C1F3421401F01F060127AA
:1030F00007FA06F5012C01D10C3004E0022C01D1B5
:10310000103000E014301AB107682F43076002E066
:103110000768AF430760F0BD02460020B1F5007FAD
:1031200000D100BF13880B400BB1012000E000204C
:10313000704701F40072B2F5007F00D100BFCA43AE
:103140000280704770B5024600240023002500204D
:1031500040F66A16B14200D100BFC1F3421501F03A
:103160001F03012606FA03F3012D13D1968933407C
:1031700017E00000001001400044004000480040FB
:10318000004C004000500040001401400078004016
:10319000007C0040022D02D1168A334001E0968A5D
:1031A00033400C12012606FA04F41688344013B199
:1031B0000CB1012000E0002070BD10B500220023FA
:1031C00040F66A14A14200D100BF0A1201249440C3
:1031D000A3B2DC43048010BD70B504466FF0040058
:1031E000FDF714FDE11704EB5171C1F3C7013A4A31
:1031F0001170E11704EB5171CD104FF47A70454313
:103200000120364908804FF0E020006940F00200BC
:103210004FF0E021086108464561006940F0010077
:10322000086170BD70B5034600224FF0E026756955
:10323000294E367803FB06F44FF0E026B16910E022
:103240004FF0E026B06988420BD0884202D20E1AB5
:10325000324402E02E1A0E4432440146A24200D308
:1032600000E0EDE700BF70BD70B5044605F0A7FBB8
:10327000012810D019480088844206D317480088D6
:10328000B4FBF0F5284604F03DFE14480088B4FB7A
:10329000F0F100FB11444FF47A7104FB01F0FFF7E9
:1032A000C1FF70BD10B505F08AFB012802D003F004
:1032B0009FFB04E00A480068401C0949086010BDF3
:1032C00010B505F07CFB012802D005F00EF910BD09
:1032D00003480068FBE70000780000207A00002027
:1032E0007C00002000BF704700BF4E4A128802F0E9
:1032F0004002002AF9D0C2B24A4B9A80704710B5FA
:1033000088B0044601210846FEF71EFA012110206C
:10331000FEF774FA072209214348FEF702F8072254
:103320000A214148FDF7FDFF4FF4C06006900220DE
:103330008DF81C008DF81D0000208DF81E00012066
:103340008DF81F0006A93848FDF760FF02940020A1
:10335000ADF80C00ADF80E00ADF81000ADF814009B
:103360000C20ADF8120002A92E48FFF772FD0121D2
:103370002C48FFF7F6FD40212A48FFF7DAFE01222C
:1033800040F225512748FFF7A2FE25208DF80400C2
:1033900003208DF805008DF8060001208DF8070048
:1033A00001A8FDF7E6FB08B010BD10B540F22551AD
:1033B0001C48FFF7C7FE10B31A48FFF701FEC4B25E
:1033C0001A48008800F40040C8B91848008800F482
:1033D000804060B10A2C03D000201449088020E00E
:1033E0001248008840F400401049088019E00D2C74
:1033F00006D10E48008840F480400C49088010E057
:103400000A480088C0F30D0009490C540748008899
:10341000401C0649088008460088C72801DD0020B6
:10342000088010BD00100140000002408000002014
:10343000C00D00201CB501210820FEF785F90121EF
:103440000420FEF781F90420009001208DF804008B
:1034500000208DF8060003208DF8050069460E480F
:10346000FDF7D4FE04210C48FDF74CFF4FF48070AB
:10347000009001208DF8040000208DF80600032044
:103480008DF8050069460548FDF7C0FE4FF48071D0
:103490000248FDF737FF1CBD000C02400008024047
:1034A00070B505460C4600F02DFA342000F0D6FA2F
:1034B00000F069FA08B1012070BDC4F3002141EAAF
:1034C0004501C8B200F0CAFA00F05DFA08B1022066
:1034D000F2E7E0B200F0C2FA00F055FA08B10320BA
:1034E000EAE700F031FAF54820F815400020E3E75C
:1034F0001CB501210520FEF727F94FF4004000908C
:1035000002208DF8040000208DF8060003208DF8BD
:10351000050001208DF807006946E948FDF776FEB1
:103520004FF4E450009002208DF8040000208DF844
:10353000060003208DF8050001208DF8070069467C
:10354000E048FDF763FE06220F21DD48FDF7E9FEA6
:1035500006220A21DB48FDF7E4FE05220B21D948AB
:10356000FDF7DFFE06220721D648FDF7DAFE062228
:103570000C21D448FDF7D5FE00F0A6F9002108463D
:10358000FFF78EFF04460CB101201CBD1B2101205A
:10359000FFF786FF4FF4D8710220FFF781FF6C21FF
:1035A0000320FFF77DFF00210620FFF779FF1021A0
:1035B0002B20FFF775FF4FF480712F20FFF770FF6E
:1035C0004FF480713020FFF76BFF02213120FFF7AD
:1035D00067FF08210A20FFF763FF08210E20FFF78D
:1035E0005FFF0020D1E70146B44830F81100704772
:1035F00070B505460E460320FFF7F5FF044615B1EA
:1036000044F0030401E024F0030421460320FFF703
:1036100047FF0220FFF7E7FF044616B144F003041A
:1036200001E024F0030421460220FFF739FF70BDBA
:1036300070B5044604F007042F20FFF7D4FF0546B9
:1036400025F0070545EA04012F20FFF729FF302068
:10365000FFF7C9FF054625F0070545EA04013020BC
:10366000FFF71EFF70BD70B5044604F007042F205D
:10367000FFF7B9FF054625F0700545EA04112F2034
:10368000FFF70EFF3020FFF7AEFF054625F070056F
:1036900045EA04113020FFF703FF70BD2DE9F0412A
:1036A00005460E4617460220FFF79DFF044615B15A
:1036B00044F00C0401E024F00C0421460220FFF742
:1036C000EFFE2C20FFF78FFF044615B144F03304C2
:1036D00001E024F0330421462C20FFF7E1FE1EB167
:1036E0000520FFF7C0FF02E00020FFF7BCFF1FB17D
:1036F0000720FFF79DFF02E00020FFF799FFBDE8DC
:10370000F08170B506460D4600240EB144F0010468
:103710001DB144F0020444F0140421463220FFF7A6
:10372000BFFE21463320FFF7BBFE70BD10B5044637
:1037300004F03F0421462D20FFF7B2FE44F48071CF
:103740002E20FFF7ADFE10BD70B504460D4604F007
:10375000030405F00305E00040EA45110420FFF7EB
:103760009FFE70BD70B504460D4604F03F0405F0A1
:103770003F050CB944F040040DB945F04005214621
:103780003420FFF78DFE45F480713520FFF788FE69
:1037900070BD10B5044604F03F040CB944F0400479
:1037A00021463620FFF77CFE44F480713720FFF776
:1037B00077FE10BD10B5044604F00F042146292001
:1037C000FFF76EFE10BD70B505461220FFF70BFF28
:1037D000044615B144F4807401E024F48074214659
:1037E0001220FFF75DFE70BD70B506460C4606F070
:1037F0000306182C00DD1824C4F11800C4B21220EE
:10380000FFF7F1FE054605F4807545EA46152543A8
:1038100029461220FFF744FE70BD70B505460C46E0
:10382000002605F00305182C00DD1824C4F118004B
:10383000C4B246EA4516264331461320FFF730FE50
:1038400070BD70B505460C46002605F00305182C22
:1038500000DD1824C4F11800C4B246EA4516264318
:1038600031461420FFF71CFE70BD70B505460C46AE
:10387000002605F00305182C00DD1824C4F11800FB
:10388000C4B246EA4516264331461520FFF708FE26
:1038900070BD70B505460C46002605F00305182CD2
:1038A00000DD1824C4F11800C4B246EA45162643C8
:1038B00031461620FFF7F4FD70BD000082000020A5
:1038C00000000240000802401CB501210220FDF763
:1038D0003BFFC020009001208DF8040000208DF8EF
:1038E000060003208DF8050001208DF807006946C9
:1038F0008848FDF78BFC0120874908608749C1F89B
:103900009C021CBD10B58348006820F440408149EA
:1039100008600846006840F48040086001207E4945
:10392000091D08607D49C1F898020420FFF77AFC60
:1039300000207949091D08600420FFF773FC00206E
:103940007649C1F8980210BD10B57248006820F49D
:103950004040704908600846006840F480400860B4
:1039600000206D4908606D49C1F89C020420FFF7F2
:1039700059FC0120684908606849C1F89C0204208C
:10398000FFF750FC10BD10B500246248006820F419
:1039900040406049086008460068086001205E49B0
:1039A000091D0860FFF73EFC01205C49C1F8980240
:1039B000FFF738FC07E0601CC4B2FA2C03DDFFF708
:1039C000C3FF012010BD54487C3800680028F2D1A4
:1039D0005149086000BFF5E710B500204E49086066
:1039E0004C48006820F440404A4908600846006896
:1039F00040F48040086000204849C1F89C02022041
:103A0000FFF710FC0120444908600220FFF70AFC80
:103A100000204249C1F8980210BD10B500203E496F
:103A200008603C48006820F440403A490860084675
:103A3000006840F48040086001203849C1F89C02C9
:103A40000220FFF7EFFB0120334908600220FFF757
:103A5000E9FB00203149C1F8980210BD70B5044659
:103A60002C48006820F440402A4908600846006855
:103A700040F480400860002027490860002517E0D6
:103A8000E0092549091D08606006040E0220FFF7C1
:103A9000C9FB01202149C1F898020220FFF7C2FBAF
:103AA00000201D4908600220FFF7BCFB681CC5B25E
:103AB000082DE5DB70BD70B505460024154800688B
:103AC00020F440401349086008460068086000265A
:103AD00016E00020104908600220FFF7A3FB012038
:103AE0000E49C1F898026006040E0B487C38006845
:103AF00008B1601CC4B20120FFF794FB701CC6B271
:103B0000082EE6DB15B9FFF788FF01E0FFF764FF39
:103B1000204670BD0004024098824042008040422E
:103B20002DE9FF4104460F4615461E460121C803F4
:103B3000FDF753FE0121C803FDF7A4FE00214FF459
:103B40000040FDF79FFEADF80070ADF80240ADF803
:103B500004600020ADF8060002200290ADF80C5081
:103B60006946B548FEF79CF801220221B248FEF7EB
:103B700012FA0121B048FEF77BF9BDE8FF812DE97B
:103B8000FF4104460F4615461E4687F48070ADF887
:103B90000000ADF80240ADF804600020ADF806006A
:103BA00002200290ADF80C5069464FF04020FEF71D
:103BB000A9F9012211464FF04020FEF7ECF901214E
:103BC0004FF04020FEF754F9BDE8FF8170B505467F
:103BD000002400260A20B5FBF0F500BF09E004EB45
:103BE0008400964931F81000A84200D103E0601C1F
:103BF000C4B20B2CF3D300BF0020FDF776FC0B2CD6
:103C000001D1012070BD04EB84028C4B03EB420216
:103C1000918804EB840203EB42025088FDF75EFCBE
:103C20008748006840F080608549086000BF84488C
:103C3000006800F000600028F9D004EB84007F49A0
:103C400001EB4000C68804EB840001EB4000C08813
:103C500046EA002646F40076774920310E8000209F
:103C6000D0E700B591B001214805FDF76DFD75481D
:103C7000FCF7EAFF00BF7348FDF70FF90028FAD1FF
:103C800071497048FDF790F9002001906A480C30A6
:103C900002906E480068039040200490A020059098
:103CA000002006904FF4806007904000089080004C
:103CB000099040110A9040020B9000200C900D904A
:103CC0000E900F9001A95F48FDF760F80022604850
:103CD00001685C48FDF7BBF801215A48FDF7C3F8BD
:103CE000012210215748FDF718F92F208DF84000C8
:103CF00000208DF8410002208DF8420001208DF84F
:103D0000430010A8FCF735FF11B000BD00B591B01D
:103D100001214805FDF718FD4A48A838FCF794FF33
:103D200000BF4848A838FDF7B8F80028F9D149493C
:103D30004448A838FDF738F94FF0C0600190464874
:103D4000029046480068039000200490A02005904F
:103D5000002006904FF4806007904000089080009B
:103D6000099040110A9000020B9000200C900D90D9
:103D70000E900F9001A93348A838FDF707F80022EC
:103D8000374801682F48A838FDF761F801212D4810
:103D9000A838FDF768F8012210212A48A838FDF755
:103DA000BCF80B208DF8400000208DF84100012068
:103DB0008DF842008DF8430010A8FCF7DAFE11B030
:103DC00000BD10B527491F48FDF7C4F8012806D1EA
:103DD00024491C48FDF7E8F823480068804710BDD7
:103DE00010B522491748A838FDF7B4F8012807D1C3
:103DF0001E491448A838FDF7D7F81D4800688047C9
:103E000010BD10B501210F48FCF7FAFF10BD10B529
:103E100000210C48FCF7F4FF10BD10B50121094842
:103E2000A838FCF7EDFF10BD10B500210548A838F3
:103E3000FCF7E6FF10BD0000003C00401620010822
:103E400000380240B860024000F040AF0C00002093
:103E5000100000203DF000900C40004004000020C5
:103E60000800002000800028F800002020800010BA
:103E7000FC0000201CB501210720FDF765FC402057
:103E8000009000208DF8040003208DF8050001202B
:103E90008DF8070069463048FDF7B8F94FF48050B7
:103EA000009001208DF8070069462C48FDF7AEF917
:103EB0000820009000208DF8040003208DF80500F4
:103EC00001208DF8070069462548FDF79FF94FF45A
:103ED0000060009001208DF8040000208DF806009D
:103EE00003208DF8050001208DF8070069461B4866
:103EF000FDF78CF94FF400611848FDF705FA1CBD79
:103F000010B5044614B10120164908701548007810
:103F1000A8B11548006810B11448006878B90A20A3
:103F2000FFF7A2F900200F4908700F48006808B990
:103F3000012010BD0D48006858B90320F9E70A4870
:103F40000068012805D109480068012801D1054908
:103F500008700020EDE70000000802400000024069
:103F60000004024000010020180241420C8240423D
:103F70000020FE490860091D0860091D0860091D30
:103F80000860FA4924310860091D0860091D0860AD
:103F9000F748F649383108600020091D086070476D
:103FA00001460020012900D011B9F24B197000E040
:103FB000262070470146ED4A121D106820F0FF00D0
:103FC00008431060704770B5044606E0E748343097
:103FD000056805F0450000B100E0F7E700BF0420E8
:103FE000FDF7CEFD20B10420FDF7D5FD032070BD07
:103FF0000120FDF7C5FD20B10120FDF7CCFD01201A
:10400000F5E7DA4810300068A04201D01020EEE752
:1040100040F2FF50FDF7BFFDD4481430006808217E
:104020000840C0B2E3E72DE9FC4107460D460026F3
:1040300000240020009001900820CF490860102043
:104040004860402088600020C8604FF480600861AC
:104050000846FDF702FD1020FFF7B5FF044614B136
:104060002046BDE8FC81C54800880004C2490860BC
:1040700037204860402088600020C8604FF480608E
:1040800008610846FDF7E9FC3720FFF79CFF04466E
:104090000CB12046E5E74FF0FF30B9490860082031
:1040A0004860302088600220C8600020086101203C
:1040B00048610846FDF7FDFC0020AF490860332049
:1040C0004860402088600020C8604FF4806008612C
:1040D0000846FDF7C2FC3320FFF775FF04460CB11C
:1040E0002046BEE70DE04FF40010FDF749FD40B15A
:1040F0009E48803000684DF82600761C022E00D3C2
:1041000007E09A483430006840F22A6108400028ED
:10411000E9D000BF0820FDF733FD20B10820FDF7EE
:104120003AFD04209DE70220FDF72AFD20B1022080
:10413000FDF731FD022094E72020FDF721FD20B19D
:104140002020FDF728FD06208BE74FF40070FDF7D7
:1041500017FD28B14FF40070FDF71DFD072080E723
:1041600040F2FF50FDF717FD00980006009901F49A
:104170007F4140EA0120009901F47F0140EA1120CB
:10418000009940EA1160686001980006019901F405
:104190007F4140EA0120019901F47F0140EA1120AA
:1041A000019940EA1160286020465AE77CB505462F
:1041B000002400200090019000260DB1022600E0AE
:1041C00000266A481430006800F0007008B10E2024
:1041D0007CBD6A49098888B26946FFF724FF044616
:1041E0000CB12046F4E7019800F4802060B36348E6
:1041F00000880004604908603720486040208860DB
:104200000020C8604FF4806008610846FDF725FC77
:104210003720FFF7D8FE04460CB12046D8E75648B1
:104220000660062054494860402088600020C8602D
:104230004FF4806008610846FDF70FFC0620FFF789
:10424000C2FE04462046C3E72520C1E770B50446F8
:1042500000254C480078032802D12725284670BD48
:104260004848007838B147480078012803D04548CD
:104270000078022819D1B4F5805F02D1272528469D
:10428000EDE7E0B2FFF792FF054675B93748001D2C
:10429000006820F4C0503549091D086008460068D0
:1042A000204308600846006808602846D7E710B534
:1042B00004463148046007202F4948604020886048
:1042C0000020C8604FF4806008610846FDF7C5FB18
:1042D0000720FFF778FE10BDF0B501460020002250
:1042E000284B1B7881F85630244B1B88A1F854309A
:1042F000254B1B681A0E93090B70C2F383034B7096
:1043000002F003038B70204B1B68C3F30742CA7093
:104310001D4B1B88C3F307220A711B4B1A784A7185
:104320005B681A0E1301CB80174B5B68C3F307421F
:10433000CB8843EA1213CB8002F00F030B72124BAF
:104340009B88C3F30722D3094B72C2F380138B728D
:10435000C2F34013CB72C2F300130B7300234B73F1
:10436000084B1B78C3B1074B1B780FE0002C0140B2
:10437000FF07C0000C010020A00E00200801002053
:10438000B40E002004010020CC0E0020012B03D02D
:10439000FE4B1B78032B4FD193071B0D0B61FC4B7E
:1043A0001A790B6943EA82030B61F94B9B681A0E79
:1043B0000B6943EA92130B61C2F3C2030B7502F05F
:1043C00007034B75F24B9B68C3F3074253098B7588
:1043D000C2F38203CB7593075B0F0B76EC4B1B8903
:1043E000C3F307220B7E43EAD2130B760B695B1CE7
:1043F0000024C1E912340B7E9B1C012404FA03F350
:10440000DC17D1E91256A5FB037C06FB03C305FBB1
:104410000433C1E912730C7A0123A3400B65002415
:10442000D1E912650B6DA6FB037C05FB03C306FBFC
:104430000433C1E912732EE0D44B1B78022B2AD12E
:10444000D34B1A7993069B0A0B61D14B9B681A0ECA
:104450000B6943EA02230B61CD4B9B68C3F3074210
:104460000B6913430B61CA4B1B89C3F307220B690A
:104470005B1C4FF40074A3FB04464FF480630025DB
:10448000A4FB037C06FB03C304FB0533C1E91273E1
:104490004FF400730B65C2F3801301F8193F9306C4
:1044A0005B0E4B70BA4B1A7A4B7843EAD2134B70BF
:1044B00002F07F038B70B64BDB681A0ED309CB700A
:1044C000C2F341130B71C2F382034B7193071B0FAD
:1044D0008B71AF4BDB68C3F307428B7943EA9213CE
:1044E0008B71C2F34013CB7100230B7202F00103F6
:1044F0004B72A74B9B89C3F30722D3098B72C2F37C
:104500008013CB72C2F340130B73C2F300134B73CF
:10451000C2F381038B7302F00303CB739C4B1A7BB2
:1045200053080B7401234B749A4B1B681A0ECA7400
:104530001939984B1B68C3F307421402CC85954B7D
:104540001B88C3F30722CB8D1343CB85914B1A787D
:1045500014060C635B681A0E0B6B43EA02440C638F
:104560008C4B5B68C3F307420B6B43EA02240C637A
:10457000884B9B88C3F307220B6B13430B63854B5C
:104580001A7934235A54834B9B681A0E35235A5494
:10459000804B9B68C3F3074214068C637D4B1B89D9
:1045A000C3F307228B6B43EA02448C63794B1A7A7C
:1045B0008B6B43EA02248C63764BDB681A0E8B6BA1
:1045C00013438B63734BDB68C3F307423C235B5C91
:1045D00043EA12143C235C5413071C0DCC876D4B2B
:1045E0009B89C3F30722CB8F1343CB87694B1A7B7D
:1045F000540840235C54012441235C54F0BD70B541
:1046000000264FF4803505E06348046804F0450057
:1046100000B103E02800A5F10105F5D100BF15B1F7
:1046200004F0040028B103260420FDF7B4FA304654
:1046300070BD0120FDF7A4FA18B101260120FDF795
:10464000AAFA40F2FF50FDF7A6FA3046F0E72DE94E
:10465000F04105460E464FF0000805E04E48076859
:1046600007F0450000B100E0F8E700BF0420FDF7C7
:1046700087FA28B10420FDF78EFA0320BDE8F08107
:104680000120FDF77DFA20B10120FDF784FA012019
:10469000F4E7414824380068A84201D01020EDE733
:1046A00040F2FF50FDF777FA3B482038046804F4E5
:1046B000604018B9200C30804046DFE704F4005019
:1046C00008B11320DAE704F4804008B11020D5E7E0
:1046D00004F4004008B10F20D0E74046CEE738B5DB
:1046E000002401200090FDF7B2F910B925242046DE
:1046F00038BD26480078042825D0002027490860C6
:1047000002204860C02088600020C8604FF48060AC
:1047100008610846FDF7A1F9FFF771FF04460CB1E7
:104720002046E5E71C48203800681A4908601A4806
:104730001C380068486018481838006888601648B7
:1047400014380068C8601148007858B10F480078E4
:10475000012807D00D480078062803D00B480078C0
:10476000022821D100200D49086003204860402024
:1047700088600020C8604FF4806008610846FDF73B
:104780006CF969460320FFF762FF09E0040100208D
:10479000CC0E0020DC0E0020342C0140A00E0020A6
:1047A00004460CB12046A3E7FE480078032816D142
:1047B000BDF800000004FC49086003204860402068
:1047C00088600020C8604FF4806008610846FDF7EB
:1047D00044F9FFF714FF04460CB1204688E7F1487E
:1047E000007804282AD0BDF80000F0490860BDF820
:1047F00000000004EC49086009204860C02088607F
:104800000020C8604FF4806008610846FDF725F974
:10481000FFF7F5FE04460CB1204669E7E44800685E
:10482000E4490860E248001D00684860E04808303C
:1048300000688860DE480C300068C860002057E7D8
:1048400010B506E0DA482030046804F0450000B1F5
:1048500000E0F7E700BF0420FDF792F920B1042043
:10486000FDF799F9032010BD40F2FF50FDF793F9D1
:104870000020F8E770B500264FF4803506E0CC48FC
:104880002030046804F0450000B103E02800A5F1E1
:104890000105F4D100BF15B104F0040028B10326CE
:1048A0000420FDF778F9304670BD04F0400018B1DF
:1048B00000264020FDF76FF93046F5E770B500257A
:1048C0004FF4803404E08020FDF75AF900B103E092
:1048D0002000A4F10104F6D100BF0CB9032070BD83
:1048E00040F2FF50FDF757F92846F8E72DE9F04769
:1048F0000027002400260025A046A1467620AE49C8
:1049000008750020086048608860C8600861084633
:10491000FDF779F80320FDF796F8A54810380068F0
:1049200040F48070A2491039086000BF12E00020F6
:104930009D49086048608860C8604FF480600861E5
:104940000846FDF78AF8FFF7B9FF044604B903E00B
:10495000781CC7B24A2FEADB00BF14B12046BDE87D
:10496000F0874FF4D57090490860082048604020D7
:1049700088600020C8604FF4806008610846FDF739
:104980006CF8FFF777FF044624B9012085490870C9
:104990004FF080490020844908603720486040205B
:1049A00088600020C8604FF4806008610846FDF709
:1049B00054F83720FFF707FB0446002C4BD134E0B6
:1049C0000020794908603720486040208860002036
:1049D000C8604FF4806008610846FDF73EF8372054
:1049E000FFF7F1FA04460CB12046B8E7734849EAEC
:1049F00000006D4908602920486040208860002040
:104A0000C8604FF4806008610846FDF726F8FFF79C
:104A100017FF04460CB12046A1E76548066801204F
:104A200080EAD67080F001086D1CB8F1000F03D148
:104A30004FF6FF708542C3D34FF6FF70854202D315
:104A40001B2420468BE706F08040060032D002206F
:104A5000544908702EE01CE0594853490860012071
:104A60004860402088600020C8604FF48060086182
:104A70000846FCF7F2FFFFF7E3FE04460CB12046C0
:104A80006DE74B480668012080EAD67080F0010887
:104A90006D1CB8F1000F03D14FF6FF708542DBD3D8
:104AA0004FF6FF70854202D31B24204657E70320B0
:104AB0003C490870204652E73EB5002400250121FC
:104AC0004048FCF741FE0121C802FCF797FE012196
:104AD000C802FCF7E8FE4FF4F850019002208DF870
:104AE00008008DF8090000208DF80A0001208DF8DB
:104AF0000B0001A93448FCF789FB0420019001A9AF
:104B00003248FCF783FB0C2208212F48FCF709FCF4
:104B10000C2209212C48FCF704FC0C220A212A480B
:104B2000FCF7FFFB0C220B212748FCF7FAFB0C22B9
:104B300011462548FCF7F5FB0C2202212348FCF71F
:104B4000F0FB00214FF40060FCF7ADFEFFF710FA18
:104B500031208DF8000000208DF801008DF8020052
:104B600001208DF803006846FCF703F8FFF7BEFE4E
:104B7000044614B9FFF7B3FD04461CB91448FFF707
:104B8000ABFB044634B91249B1F854100804FFF7DE
:104B90008EFB044624B94FF40060FFF757FB044630
:104BA000E4B117E004010020A00E0020080100205D
:104BB000142C0140CC0E0020880E00200000108034
:104BC0000080FF800C00400000080240000C024002
:104BD000F00E0020FE480078032812D1FD4890F81E
:104BE000560020B1FB4890F85600012801D102255B
:104BF00000E000252846FFF7DDF90020FFF7D0F997
:104C0000044620463EBD10B50020FCF71CFF0020E6
:104C100010BD70B590B004460E46154600BFEE4874
:104C2000FCF73BF90028FAD1EB48FCF70DF84FF000
:104C300000600190E94802900394049500200590DB
:104C400006904FF4806007908000089080000990E3
:104C500000200A904FF440300B9004200C90032069
:104C60000D904FF400000E9080100F9001A9DA48CB
:104C7000FCF78CF82021D848FCF7D8F80121D64859
:104C8000FCF7BEF810B070BD0146002002E04910EC
:104C9000421CD0B20129FAD170472DE9F84F814664
:104CA000174698460A9C4FF0000AD3464D464FF0EF
:104CB000FF36B9F1000F02D12620BDE8F88F0020A1
:104CC000C64954390860C2480078022805D1040258
:104CD000780A40EAC8574FEA68280020C04988602F
:104CE0004860401E0860012048610020C8600861DB
:104CF0000846FCF7DEFEB9486C38006800F000702A
:104D000008B10E20D9E7002C21DDB4F5006F1EDCC0
:104D1000601E2040D8B92046FFF7B6FF0090B1488A
:104D200004601020AF494860402088600020C860BF
:104D30004FF4806008610846FCF78FFE1020FFF7F3
:104D400042F98246BAF1000F03D05046B5E726205B
:104D5000B3E700980001A2498860084644604FF01C
:104D6000FF300860012048610220C860002008610F
:104D70000846FCF79EFE9B48076011209949486051
:104D8000402088600020C8604FF4806008610846B9
:104D9000FCF763FE1120FFF716F98246BAF1000F07
:104DA00001D0504689E79048007800285AD1FBF797
:104DB000F6F917E04FF40040FCF7E2FE70B14FF057
:104DC000000B05E08548006845F82B000BF1010B4E
:104DD000BBF1080FF6D32035844E03E00EB9042052
:104DE0006BE7761E7D484C38006840F22A61084027
:104DF0000028DFD00820FCF7C3FE20B10820FCF714
:104E0000CAFE042059E70220FCF7BAFE20B10220B6
:104E1000FCF7C1FE022050E72020FCF7B1FE20B1D4
:104E20002020FCF7B8FE062047E74FF40070FCF79F
:104E3000A7FE28B14FF40070FCF7ADFE07203CE759
:104E400003E06648006828602D1D4FF40010FCF751
:104E500097FE0028F5D1FBF7A4F940F2FF50FCF7CC
:104E60009AFE39E060480078012835D10020604979
:104E700008706049087060490870584844380068F4
:104E800040F22A31084355494439086053485438A0
:104E9000006840F00800514954390860002221465A
:104EA0004846FFF7B6FE00E0761E4B4858380068CB
:104EB00000F0006038B95048007820B94C480078BC
:104EC00008B9002EF0D10EB90420F6E64848007863
:104ED00010B1474890F800A05046EEE62DE9FF5F7C
:104EE00017469846DDE90E464FF00009CA464FF0D6
:104EF000FF3542490098086000203849543908605D
:104F000033480078022805D10402780A40EAC857DD
:104F10004FEA68280020324988604860401E0860D7
:104F2000012048610020C86008610846FCF7C1FD07
:104F30002A486C38006800F0007018B10E2004B0E8
:104F4000BDE8F09F002C21DDB4F5006F1EDC601E73
:104F50002040D8B92046FFF797FE834621480460D9
:104F6000102020494860402088600020C8604FF42D
:104F7000806008610846FCF770FD1020FFF723F8F9
:104F80008146B9F1000F03D04846D8E72620D6E77E
:104F9000012E6ED906FB04F0B0F1007F01D326206C
:104FA000CDE74FEA0B100E49886006FB04F048601D
:104FB0004FF0FF300860012048610220C8600020E7
:104FC00008610846FCF775FD06480760122017E0E7
:104FD00004010020F00E002058640240802C0140A3
:104FE000B40E0020A00E00200C010020FFFF7F0067
:104FF0000E0100200D0100200F01002010010020F3
:10500000F9494860402088600020C8604FF4806003
:1050100008610846FCF721FD1220FEF7D4FF814607
:10502000B9F1000F01D0484689E7F0480078002820
:105030007ED1FBF7B4F81EE04FF40040FCF7A0FD72
:10504000A0B14FF0000A07E0E9480068E9490968A3
:1050500041F82A000AF1010ABAF1080FF4D3E54831
:1050600000682030E3490860E34D04E015B90420EE
:1050700065E7AEE06D1EDE484C38006840F22A312C
:1050800008400028D8D00820FCF77AFD20B108207D
:10509000FCF781FD042052E70220FCF771FD20B1EE
:1050A0000220FCF778FD022049E72020FCF768FD8C
:1050B00020B12020FCF76FFD062040E74FF4007080
:1050C000FCF75EFD28B14FF40070FCF764FD07208B
:1050D00035E709E0C6480068C64909680860C54860
:1050E0000068001DC34908604FF40010FCF748FD3C
:1050F0000028EFD14FF48070FCF742FD20B3BF4889
:10510000007838B1BD480078012803D0BB4800784A
:10511000022819D10020B44908600C2048604020C2
:1051200088600020C8604FF480600861084600E095
:1051300011E0FCF792FC0C20FEF745FF8146B9F127
:10514000000F01D04846FAE6FBF72BF840F2FF507B
:10515000FCF721FD3DE0A5480078012839D1002069
:10516000A74908700120A74908700020A6490870C7
:105170009F484438006840F22A3108439C4944392A
:1051800008609B485438006840F00800984954393A
:10519000086006FB04F100220098FFF73AFD00E0EA
:1051A0006D1E9A48006800F0006008B9002DF7D124
:1051B0000DB90420C3E600BF9348007818B99048A1
:1051C00000780028F8D08E48007810B18C4890F80C
:1051D00000904846B3E61CB50446002001900090BC
:1051E0008B4800880004804908600D2048604020FA
:1051F00088600020C8604FF4806008610846FCF7B2
:105200002CFC7B484C380068009003E078484C3810
:1052100000680090009800F045000028F6D00120BA
:10522000FCF7AEFC20B10120FCF7B5FC01201CBD51
:105230000420FCF7A5FC20B10420FCF7ACFC032003
:10524000F5E76B48703800680D2801D01020EEE7B4
:1052500040F2FF50FCF79FFC65486C3800680190F5
:105260000198C0F3432020700020E0E72DE9FF5FA4
:1052700086B017469846149D00260020059004909D
:10528000002481460390824602900195DDF818B013
:10529000DDF818B0BBF1000F03D126200AB0BDE83D
:1052A000F09F00205249543908605A49886048608C
:1052B000401E0860012048610020C860086108465F
:1052C000FCF7F7FB4A486C38006800F0007008B142
:1052D0000E20E3E749480078022805D10502780A44
:1052E00040EAC8574FEA6828002D1FDDB5F5006F6A
:1052F0001CDC681E2840C8B92846FFF7C5FC05908D
:1053000039480560102038494860402088600020F6
:10531000C8604FF4806008610846FCF79EFB1020CF
:10532000FEF751FE06461EB13046B7E72620B5E728
:105330003748008800042C4908600D204860402050
:1053400088600020C8604FF4806008610846FCF760
:1053500084FB0D20FEF737FE06460EB130469DE772
:1053600023486C38006803904FF0FF341CE0641E43
:105370002748008800041C4908600D204860402030
:1053800088600020C8604FF4806008610846FCF720
:1053900064FB0D20FEF717FE06460EB130467DE792
:1053A00013486C3800680390039800F4807008B9C3
:1053B000002CDCD10CB9292070E70B4807601820BD
:1053C00009494860402088600020C8604FF4806030
:1053D00008610846FCF741FB1820FEF7F4FD06467D
:1053E000D6B130465AE70000A00E00200C01002084
:1053F000802C014010010020FFFF7F0004010020ED
:105400000E0100200D0100200F0100200064024069
:1054100008010020B40E00200020F849087005980B
:105420000001F7498860084645604FF0FF3008608A
:10543000012048610020C86008610846FCF739FB7C
:105440004FF0FF34EF48007800287CD1FAF7A7FE30
:1054500043E04FF48040FCF793FBC8B30198A0EB06
:105460000900202821D20198A0EB090000F00300D8
:1054700020B90198A0EB0900800804E00198A0EB96
:1054800009008008401C02904FF0000A09E0DE4944
:10549000DBF8000008600AF1010A0BF1040B09F1C6
:1054A000040902988245F2D30FE04FF0000A05E0AC
:1054B0005BF82A00D44908600AF1010ABAF1080F22
:1054C000F6D30BF1200B09F120096FF0404404E002
:1054D000FFE70CB90420E1E6641ECB484C380068B5
:1054E00040F21A6108400028B3D00820FCF748FBBE
:1054F00020B10820FCF74FFB0420CFE60220FCF788
:105500003FFB20B10220FCF746FB0220C6E610203C
:10551000FCF736FB20B11020FCF73DFB0520BDE673
:105520004FF40070FCF72CFB30B14FF40070FCF727
:1055300032FB0720B2E606E0FAF733FE40F2FF50F6
:10554000FCF729FB43E0AF48007801283FD1002059
:10555000AE490870A9490870AD490870AA48443896
:10556000006840F21A310843A749443908604022D4
:1055700029460698FFF74DFBA3485438006840F0D1
:105580000800A1495439086000E0641EA148006881
:1055900000F0006008B9002CF7D11CB9FFF78CFAB5
:1055A00004207BE64FF0FF3400E0641E984800784A
:1055B00020B99648007808B9002CF6D10CB904201F
:1055C0006CE69248007810B19048007866E640F2A8
:1055D000FF50FCF7E0FA04A8FFF7FDFD064603E0E4
:1055E00004A8FFF7F8FD06463EB99DF8100007280D
:1055F000F6D09DF810000628F2D030464EE62DE990
:10560000FF5F84B0DDE9124700260020039002907E
:10561000002580468146019007FB04FBDDF810A0C1
:10562000DDF810A0BAF1000F03D1262008B0BDE8C4
:10563000F09F0020744954390860714988604860BF
:10564000401E0860012048610020C86008610846CB
:10565000FCF72FFA6C486C38006800F0007008B155
:105660000E20E3E76C480078022808D10402DDE947
:105670000601400A40EAC1504912CDE90601002C5A
:105680001FDDB4F5006F1CDC601E2040C8B9204649
:10569000FFF7FAFA03906148046010205F49486000
:1056A000402088600020C8604FF480600861084690
:1056B000FCF7D3F91020FEF786FC06461EB13046F3
:1056C000B4E72620B2E7012F6FD907FB04F0B0F151
:1056D000007F01D32620A9E74F48007838B14E4813
:1056E0000078012803D04C48007802282DD14C487E
:1056F00000880004494908603720486040208860DD
:105700000020C8604FF4806008610846FCF7A5F9E6
:105710003720FEF758FC06460EB1304686E73F4874
:10572000076017203D494860402088600020C8601D
:105730004FF4806008610846FCF78FF91720FEF7E8
:1057400042FC06460EB1304670E7344906980860C0
:1057500019204860402088600020C8604FF48060B5
:1057600008610846FCF779F91920FEF72CFC06467B
:105770000EB130465AE7039800012149886007FBC3
:1057800004F048604FF0FF300860012048610020BD
:10579000C86008610846FCF78CF91A4800780028B0
:1057A00072D1451EFAF7FBFC54E0F8E04FF480405C
:1057B000FCF7E6F9B0B3ABEB0800202833D2ABEB33
:1057C000080000F0030018B9ABEB0800800803E004
:1057D000ABEB08008008401C01904FF0000909E085
:1057E0000949DAF80000086009F101090AF1040A20
:1057F00008F1040801988145F2D324E00D0100204E
:10580000B40E00200C010020802C01400E0100206D
:105810000F0100200064024004010020A00E0020BF
:105820000801002012E04FF0000905E05AF82900B5
:10583000F849086009F10109B9F1080FF6D30AF136
:10584000200A08F120086FF0404503E00DB904205C
:10585000ECE66D1EEF484C38006840F21A31084003
:105860000028A3D00820FCF78BF920B10820FCF712
:1058700092F90420DAE60220FCF782F928B102202E
:10588000FCF789F90220D1E640E01020FCF778F916
:1058900020B11020FCF77FF90520C7E64FF4007017
:1058A000FCF76EF928B14FF40070FCF774F907208B
:1058B000BCE64FF48070FCF763F900B3D64800787B
:1058C00038B1D5480078012803D0D34800780228A1
:1058D00015D10020D14908600C2048604020886024
:1058E0000020C8604FF4806008610846FCF7B5F8F6
:1058F0000C20FEF768FB06460EB1304696E6FAF736
:1059000050FC40F2FF50FCF746F948E0C4480078EC
:10591000012844D10020C34908700120C249087001
:105920000020C2490870BB484438006840F21A3170
:105930000843B8494439086007FB04F14022049841
:10594000FFF767F9B3485438006840F00800B149E0
:10595000543908604FF0FF3500E06D1EB448006810
:1059600000F0006008B9002DF7D11DB9FFF7A4F8C9
:1059700004205BE64FF0FF3500E06D1EAB48007879
:1059800020B9A848007808B9002DF6D10DB9042037
:105990004CE6A448007810B1A248007846E640F2F0
:1059A000FF50FCF7F8F802A8FFF715FC064603E0E5
:1059B00002A8FFF710FC06463EB99DF8080007282C
:1059C000F6D09DF808000628F2D030462EE610B535
:1059D0004FF48070FCF7D4F888B39348007801281E
:1059E00014D100208D4908600C2048604020886058
:1059F0000020C8604FF4806008610846FCF72DF86D
:105A00000C20FEF7E0FA8749087002E00020854983
:105A1000087080484838006840F480707D494839F3
:105A20000860081D00684CF23A31884379494439CE
:105A3000086001207D4908707A48007810BDFFE7B2
:105A40000220FCF79DF878B10220FCF7A4F8714819
:105A5000443800684CF23A3188436E494439086052
:105A6000022070490870E9E70820FCF789F878B14E
:105A70000820FCF790F86748443800684CF23A3147
:105A80008843644944390860042066490870D5E7B2
:105A90002020FCF775F878B12020FCF77CF85D48F1
:105AA000443800684CF23A3188435A494439086016
:105AB00006205C490870C1E71020FCF761F878B156
:105AC0001020FCF768F85348443800684CF23A312B
:105AD0008843504944390860052052490870ADE7B1
